:100000000C942A000C943F000C943F000C943F0089
:100010000C943F000C943F000C943F000C943F0064
:100020000C943F000C943F000C943F000C943F0054
:100030000C943F000C943F000C943F000C943F0044
:100040000C943F000C943F000C943F000C943F0034
:100050000C943F0011241FBECFE5D8E0DEBFCDBF1A
:1000600010E0A0E6B0E0E4E6FDE002C005900D92ED
:10007000AC37B107D9F70E9419030C94B0060C9461
:10008000000095B39F70282F207F922B95BB95B3CE
:100090009E7F95BB95B3926095BB32E03A95F1F7A0
:1000A00000C095B39D7F95BBEFE8F1E03197F1F784
:1000B00000C0000025B3F0E18F9FC0011124922FF2
:1000C0009F70892B85BB85B3826085BB32E03A95F2
:1000D000F1F700C085B38D7F85BB8FE99FE0019765
:1000E000F1F700C0000008958FEF84BB8FE39CE917
:1000F0000197F1F700C0000083E30E94410082E312
:100100000E94410088E20E9441008EE00E9441006E
:1001100086E00E94410081E00E944100089595B36D
:100120009F70282F207F922B95BB95B3916095BB34
:1001300095B3926095BB32E03A95F1F700C095B364
:100140009D7F95BBEFE8F1E03197F1F700C000002B
:1001500025B3F0E18F9FC0011124922F9F70892B4E
:1001600085BB85B3826085BB32E03A95F1F700C06C
:1001700085B38D7F85BB8FE99FE00197F1F700C0C4
:1001800000000895811180E4860F80680E9441007C
:1001900008950F931F93CF93DF938C01C0E0D0E0BD
:1001A00003C00E948F002196F801EC0FFD1F808193
:1001B0008111F7CFDF91CF911F910F91089581E0C9
:1001C0000E9441008FE99FE00197F1F700C0000015
:1001D00080E80E944100089580EF81BB8FEF82BBD1
:1001E0000895CF93DF93CDB7DEB760970FB6F8943D
:1001F000DEBF0FBECDBF80E1E0E6F0E0DE0111968C
:1002000001900D928A95E1F730E03EC0432F50E017
:1002100080E190E0032E02C0880F991F0A94E2F754
:1002200081BB809582BB8FEC97E00197F1F700C00E
:10023000000020E026C080B3622F70E090E0022E24
:1002400002C0959587950A94E2F780FD19C080B3A6
:1002500090E0062E02C0959587950A94E2F780FFFC
:10026000F6CF660F771F660F771F81E090E08C0F47
:100270009D1F680F791FFB01E40FF51F808108C0E7
:100280002F5F2430C0F23F5F343008F4BFCFBCCFC3
:1002900060960FB6F894DEBF0FBECDBFDF91CF9151
:1002A0000895EF92FF920F931F93CF93DF938C01EA
:1002B00080E1F80111928A95E9F70E94DF00C0E021
:1002C000D0E00E94F10090ED980F9A3060F08B32F0
:1002D00051F08D3241F08A3231F08F3221F0883284
:1002E00011F08932B9F4CF30D1050CF57E01FFEF62
:1002F000EF1AFF0AC00FD11F8883F801EE0DFF1D12
:10030000108260E080E00E94C200C8010E94C90023
:10031000E7010DC08D33A9F0833249F480E1F80183
:1003200011928A95E9F70E94DF00C0E0D0E0FFEF6C
:1003300020E782E0F15020408040E1F700C000005B
:10034000C0CFDF91CF911F910F91FF90EF90089553
:100350008B3241F08D3241F08A3241F08F3241F4DC
:1003600081E0089581E0089581E0089581E0089595
:1003700080E008958B3249F08D3251F08A3259F085
:100380008F3261F482E090E0089581E090E008957A
:1003900081E090E0089582E090E0089580E090E0B0
:1003A00008954B3249F018F44A3271F01CC04D32B6
:1003B00039F04F3289F017C09C01260F371F18C043
:1003C0009C01261B370B14C0869F9001879F300D20
:1003D000969F300D11240CC06115710539F00E94F3
:1003E00078039B0105C020E030E002C020E030E04F
:1003F000C90108956F927F928F929F92AF92BF92A0
:10040000CF92DF92EF92FF920F931F93CF93DF93E0
:10041000CDB7DEB7C056D1090FB6F894DEBF0FBE18
:10042000CDBF5C01C12CD12CEE24EA94FE2C0FEF41
:100430001FEFB2C020E2621609F4ABC0262D30E0F7
:10044000205331092A30310500F50F5F1F4FCF01CE
:100450000E94A003F801EE0FFF1F21E030E02C0FF7
:100460003D1FE20FF31F9183808303C03FEFC31A48
:10047000D30AF501EC0DFD1D808190E0C0970A972D
:10048000A8F381E0C81AD10884C0862D0E94A80173
:1004900081111FC041C0F801EE0FFF1F21E030E0C5
:1004A0002C0F3D1FE20FF31F608171810150110974
:1004B0004801880C991C820E931E31E0E31AF10862
:1004C000472DF401808191810E94D101F401918333
:1004D0008083FF20B4F0E1E4F0E0EC0FFD1FEE0DAF
:1004E000FF1D7080872D0E94A801882351F0872D61
:1004F0000E94BA014C01862D0E94BA018816990605
:1005000054F6FFEFEF1AFF0AE1E4F0E0EC0FFD1FF5
:10051000EE0DFF1D60823DC028E262120BC03FEF6E
:10052000E31AF30AE1E4F0E0EC0FFD1FEE0DFF1D0E
:1005300060822FC089E268122CC01DC0F801EE0F46
:10054000FF1F21E030E02C0F3D1FE20FF31F608101
:100550007181015011094801880C991C820E931E6B
:1005600031E0E31AF108F401808191810E94D10108
:10057000F40191838083FF204CF0E1E4F0E0EC0F84
:10058000FD1FEE0DFF1D40814832C1F6F1E0EF1A6C
:10059000F1082FEFC21AD20AF501EC0DFD1D6080A3
:1005A000611048CF24C0F801EE0FFF1F81E090E0FA
:1005B0008C0F9D1FE80FF91F608171810150110997
:1005C0006801CC0CDD1CC80ED91EE1E4F0E0EC0F94
:1005D000FD1FEE0DFF1D408191E0E91AF108F601C3
:1005E000808191810E94D101F60191838083FF2057
:1005F000D4F6000F111FE1E0F0E0EC0FFD1FE00F5B
:10060000F11F80819181C05ADF4F0FB6F894DEBF91
:100610000FBECDBFDF91CF911F910F91FF90EF9053
:10062000DF90CF90BF90AF909F908F907F906F9012
:100630000895CF93DF93CDB7DEB76A970FB6F894DE
:10064000DEBF0FBECDBF0E9474000E94EC0065E0CB
:1006500080E00E94C20080E790E00E94C9002FEF76
:1006600089E698E1215080409040E1F700C0000009
:100670000E94DF000E94DF0060E080E00E94C20074
:10068000CE0101960E945101CE0101960E94FA010D
:100690009F938F9388E790E09F938F938E010F5ED7
:1006A0001F4F1F930F930E94C603F8010190002073
:1006B000E9F73197E01BF10B60E16E1B81E00E94CE
:1006C000C200C8010E94C9000E94F1000F900F9063
:1006D0000F900F900F900F908332F1F72FEF80E77C
:1006E00092E0215080409040E1F700C00000C2CF6E
:1006F00097FB072E16F4009407D077FD09D00E94CF
:100700008C0307FC05D03EF4909581959F4F08958A
:10071000709561957F4F0895AA1BBB1B51E107C0DF
:10072000AA1FBB1FA617B70710F0A61BB70B881F81
:10073000991F5A95A9F780959095BC01CD01089510
:10074000FC0188279927E89421912032E9F3293088
:1007500010F02E30C8F32B3241F02D3239F468946A
:1007600004C00E94BE03820F911D219120532A30A4
:10077000C0F31EF4909581959F4F08957AE0979F5E
:10078000902D879F802D910D11240895AEE0B0E04B
:10079000ECECF3E00C9487060D891E8986E08C83CF
:1007A0001A8309838FEF9FE79E838D83AE01475E97
:1007B0005F4F6F89788DCE0101960E94E803EF812B
:1007C000F885E00FF11F10822E96E4E00C94A3064A
:1007D000ABE0B0E0EEEEF3E00C9479066C017B0147
:1007E0008A01FC0117821682838181FFCCC1CE0170
:1007F00001963C01F6019381F70193FD859193FFEA
:1008000081917F01882309F4BAC1853239F493FDBF
:10081000859193FF81917F01853229F4B60190E0A3
:100820000E94DF05E7CF912C212C312CFFE1F3153D
:10083000D8F08B3279F038F4803279F08332A1F439
:10084000232D20611DC08D3261F0803369F4232D8A
:10085000216016C0832D8260382EE32DE4603E2E89
:100860002AC0F32DF8601DC037FC2DC020ED280FE5
:100870002A3040F08E32B9F436FC81C1232D206439
:10088000322E19C036FE06C08AE0989E200D112433
:10089000922E11C0EAE02E9E200D1124222EF32D5F
:1008A000F0623F2E08C08C3621F4832D8068382EEC
:1008B00002C0883641F4F70193FD859193FF819141
:1008C0007F018111B3CF982F9F7D9554933028F4E9
:1008D0000C5F1F4F9FE399830DC0833631F0833740
:1008E00071F0833509F059C021C0F80180818983F6
:1008F0000E5F1F4F88248394912C530113C028014D
:10090000F2E04F0E511CF801A080B18036FE03C00A
:10091000692D70E002C06FEF7FEFC5010E94D40522
:100920004C018201F32DFF773F2E16C0280122E0F3
:10093000420E511CF801A080B18036FE03C0692D23
:1009400070E002C06FEF7FEFC5010E94C9054C0146
:10095000F32DF0683F2E820133FC1BC0822D90E006
:1009600088169906B0F4B60180E290E00E94DF0597
:100970002A94F4CFF50137FC859137FE81915F0110
:10098000B60190E00E94DF0521102A9421E0821A2E
:1009900091088114910471F7E8C0843611F089360A
:1009A00041F5F80137FE07C0608171818281938132
:1009B0000C5F1F4F08C060817181072E000C880BEF
:1009C000990B0E5F1F4FF32DFF763F2E97FF09C047
:1009D00090958095709561957F4F8F4F9F4FF068F0
:1009E0003F2E2AE030E0A3010E941B06882E8618C5
:1009F00045C0853731F4232D2F7EB22E2AE030E01A
:100A000025C0932D997FB92E8F36C1F018F4883503
:100A100079F0B5C0803719F0883721F0B0C0E92FE0
:100A2000E061BE2EB4FE0DC0FB2DF460BF2E09C0E8
:100A300034FE0AC0292F2660B22E06C028E030E01E
:100A400005C020E130E002C020E132E0F801B7FE4D
:100A500007C060817181828193810C5F1F4F06C046
:100A60006081718180E090E00E5F1F4FA3010E94C2
:100A70001B06882E8618FB2DFF773F2E36FE0DC0F5
:100A8000232D2E7FA22E891458F434FE0BC032FC85
:100A900009C0832D8E7EA82E05C0B82CA32C03C0C0
:100AA000B82C01C0B92CA4FE0FC0FE01E80DF11D49
:100AB0008081803321F49A2D997EA92E09C0A2FE4F
:100AC00006C0B394B39404C08A2D867809F0B39419
:100AD000A3FC11C0A0FE06C0B21488F4280C922C0E
:100AE0009B180EC0B21460F4B60180E290E00E9440
:100AF000DF05B394F7CFB21418F42B1802C0982C6A
:100B0000212CA4FE10C0B60180E390E00E94DF0516
:100B1000A2FE17C0A1FC03C088E790E002C088E5F0
:100B200090E0B6010CC08A2D867859F0A1FE02C073
:100B30008BE201C080E2A7FC8DE2B60190E00E944A
:100B4000DF05891438F4B60180E390E00E94DF05E8
:100B50009A94F7CF8A94F301E80DF11D8081B601D4
:100B600090E00E94DF058110F5CF222009F442CEEB
:100B7000B60180E290E00E94DF052A94F6CFF601EC
:100B80008681978102C08FEF9FEF2B96E2E10C9454
:100B90009506FC010590615070400110D8F78095D2
:100BA00090958E0F9F1F0895FC0161507040019039
:100BB0000110D8F7809590958E0F9F1F08950F9381
:100BC0001F93CF93DF93FB01238121FD03C08FEFA0
:100BD0009FEF2CC022FF16C04681578124813581AA
:100BE0004217530744F4A081B1819D012F5F3F4F0D
:100BF000318320838C93268137812F5F3F4F37834A
:100C0000268314C08B01EC01FB010084F185E02DEB
:100C10000995892BE1F6D80116968D919C9117972D
:100C2000019617969C938E931697CE01DF91CF91E4
:100C30001F910F910895FA01AA27283051F1203110
:100C400081F1E8946F936E7F6E5F7F4F8F4F9F4F60
:100C5000AF4FB1E03ED0B4E03CD0670F781F891FA2
:100C60009A1FA11D680F791F8A1F911DA11D6A0F70
:100C7000711D811D911DA11D20D009F468943F9123
:100C80002AE0269F11243019305D3193DEF6CF0122
:100C90000895462F4770405D4193B3E00FD0C9F7E8
:100CA000F6CF462F4F70405D4A3318F0495D31FD55
:100CB0004052419302D0A9F7EACFB4E0A6959795A8
:100CC000879577956795BA95C9F70097610571057E
:100CD00008959B01AC010A2E0694579547953795C8
:100CE0002795BA95C9F7620F731F841F951FA01D22
:100CF00008952F923F924F925F926F927F928F92C0
:100D00009F92AF92BF92CF92DF92EF92FF920F939A
:100D10001F93CF93DF93CDB7DEB7CA1BDB0B0FB6A4
:100D2000F894DEBF0FBECDBF09942A883988488861
:100D30005F846E847D848C849B84AA84B984C884F7
:100D4000DF80EE80FD800C811B81AA81B981CE0FEE
:100D5000D11D0FB6F894DEBF0FBECDBFED010895D3
:040D6000F894FFCF35
:100D64003738392F3435362A3132332D23303D2B61
:0C0D740057656C636F6D6500256400001E
:00000001FF
